S00E000053414D4537302E7372656389
S214400000E82440205504400051044000510440007C
S21440001051044000510440005104400000000000DC
S21440002000000000000000000000000051044000F6
S21440003051044000000000005104400051044000BC
S2144000405104400051044000510440005104400017
S2144000505104400051044000510440005104400007
S2144000605104400000000000790240008D0240002C
S214400070A102400051044000510440005104400099
S214400080B5024000C90240005104400051044000FF
S21440009051044000510440005104400051044000C7
S2144000A051044000510440005104400051044000B7
S2144000B051044000510440005104400051044000A7
S2144000C05104400051044000510440005104400097
S2144000D000000000510440000000000051044000B1
S2144000E05104400051044000510440005104400077
S2144000F05104400051044000510440005104400067
S2144001005104400051044000510440005104400056
S2144001105104400000000000000000000000000005
S2144001205104400051044000510440005104400036
S21440013051044000000000005104400051044000BB
S21440014010B5054C237833B9044B13B10448AFF3CC
S21440015000800123237010BD3404402000000000BE
S214400160180A40000C4B43B10C480D4910B5AFF38C
S21440017000800C48036823B910BD0A48036833B9A9
S2144001807047094B002BF7D0BDE810401847064B88
S214400190002BF5D0184700BF00000000180A4000AA
S2144001A038044020180A40000000000010B51048EF
S2144001B0104B98473E2100200F4B98470F4CA047C6
S2144001C00028FCD00E4B98470E4A0F4B9A620F4CB5
S2144001D0A0470028FCD002200D4B984700200D4B2E
S2144001E098470D4B98470248024B984710BD00BFB2
S2144001F000A3E1112906400079034000CD034000EA
S214400200DD034000013F182000060E40ED0340008D
S214400210DD024000150340001D0540004164704764
S214400220C06C7047806C70472DE9F04104468846A4
S2144002300E4B9847054620460D4B9847054013D031
S2144002400C4C04F1600603E0B4420DD010345DB1AE
S21440025020684045F8D161682942F5D0E368984760
S214400260636825EA0305EFE7BDE8F0812102400018
S214400270250240005004402008B50A210148024BA0
S214400280984708BD000E0E402902400008B50B21D5
S2144002900148024B984708BD00100E402902400016
S2144002A008B50C210148024B984708BD00120E4085
S2144002B02902400008B510210148024B984708BD66
S2144002C000140E402902400008B511210148024B97
S2144002D0984708BD00160E4029024000032811D05A
S2144002E0042812D002280CBF4FF480710021084A1F
S2144002F0136B23F440730B431363936E13F0080F92
S214400300FBD070474FF44071F1E74FF40071EEE7D1
S21440031000060E40174A136B23F070031843106311
S214400320936E13F0080F0AD14FF4805311498A6E2A
S21440033012F0080F03D1013BF9D1012070470D4A56
S214400340136B23F0030343F002031363936E13F01F
S214400350080F0AD14FF4805306498A6E12F0080FF0
S21440036005D1013BF9D1012070470020704700209D
S214400370704700BF00060E40A0B90E48036A090247
S21440038089B20D4A1A400D4B134319430162024687
S214400390936E13F0010FFBD0064A116A084B0B43CD
S2144003A01362704703490B6A064A1A40064B1343CA
S2144003B00B62704700060E40FCFFC8FF0100370086
S2144003C000003701FCFFC8FE02003701024B986E62
S2144003D000F48030704700BF00060E404FF00052D9
S2144003E0014B9A62704700BF00060E40024B986E63
S2144003F000F00200704700BF00060E403F281ED89F
S2144004001F280CD8114B9A6901238340934318D078
S214400410012303FA00F00D4B186100207047203886
S2144004200A4BD3F808210123834093430BD0012382
S21440043003FA00F0054BC3F8000100207047012086
S2144004407047002070470020704700BF00060E40EF
S214400450FEE7000000B583B0254B264A9A4210D0EE
S214400460254B234A9A420CD2013B9B1A23F00303A6
S214400470043313441F4951F8040B42F8040B9A42C4
S214400480F9D11E4B1E4A9A420AD2013B9B1A23F0D0
S214400490030304331344002142F8041B9342FBD168
S2144004A0184A194B23F07F039360EFF31083B3FA97
S2144004B083F35B09019372B6BFF35F8F0022134B41
S2144004C01A700199124A136843F470031360BFF31D
S2144004D04F8FBFF36F8F29B101220C4B1A70BFF3B9
S2144004E05F8F62B60B4B98470B4B9847FEE700BFB3
S2144004F000004020180A400034044020E404402015
S2144005003404402000ED00E00000400000004020A1
S21440051088ED00E081084000D10740003B4B1B6B54
S21440052003F00303012B1DD083B1022B36D0374B8B
S2144005301B6B03F07003702B5FD0344B1A6B34493F
S214400540C2F302120B68D3400B607047314B5B69B5
S21440055013F0800F14BF4FF400424FF4FA422C4B76
S2144005601A60E4E7294B1B6A13F0807F03D02A4ABF
S214400570274B1A60DBE7294A254B1A60234B1B6A38
S21440058003F07003102B05D0202BD0D1224A204BED
S2144005901A60CCE7224A1E4B1A60C8E71B4B1B6A00
S2144005A013F0807F16D01C4A194B1A60174B1B6BF2
S2144005B003F00303022BBAD1144A916A926A144894
S2144005C0C1F30A41036801FB0333D2B2B3FBF2F333
S2144005D00360ACE7114A0E4B1A600C4B1B6A03F0E3
S2144005E07003102B05D0202BE0D10B4A084B1A6025
S2144005F0DCE70B4A064B1A60D8E7054A13680949F8
S214400600A1FB03135B081360704700BF00060E4053
S2144006100400402010180E40001BB70000093D00A3
S21440062000127A00ABAAAAAA124B984211D9124BD2
S214400630984213D9114B984214D9114B984215D968
S214400640104B984294BF4FF004220F4A0F4B1A604B
S21440065070474FF080620D4B1A6070470C4A0B4B48
S2144006601A6070470B4A094B1A6070470A4A074B94
S2144006701A607047FF2C3101FF596202FF869303D0
S214400680FFB3C404FFE0F50500050004000C0E406F
S21440069000010004000200040003000470B5044694
S2144006A00D461646084B984716F0010F07D12566AB
S2144006B016F00A0F05D165626561256070BD6566F6
S2144006C0F6E72562F8E700BF1D02400082B000232F
S2144006D001934CF2503303FB00F0019B984205D93E
S2144006E0019B01330193019B8342F9D302B07047CB
S2144006F0F8B52E4B98474FF400422D4B5A600C20CD
S2144007002C4CA0470A20A0470C20A0470B20A0470F
S2144007101020A0470C20A0470A20A047264C4FF4A4
S21440072080712046254FB8474FF480732366636533
S214400730636323612360224D01212846B847012385
S2144007402B666B656B632B612B604FF080412046B8
S214400750B8474FF080432366636563632361236035
S214400760184E04213046B8470423336673657363D6
S21440077033613360144F09224FF080513846134E90
S214400780B04709224FF000412046B04709224FF4B7
S21440079000212846B0474FF080537B664FF0004319
S2144007A063664FF400236B66F8BD00BFAD014000A2
S2144007B050180E40FD03400000120E401D0240003F
S2144007C0000E0E4000100E4000140E409D064000E5
S2144007D02DE9F84F244B9847DFF8A0A0234E244F2E
S2144007E0244C06E04FF080437B63F36B13F4002FFA
S2144007F026D0DAF83C3013F0805F0FD105254FF055
S2144008000108C146C6F83090C820A047C6F83480D4
S214400810C820A047013DF5D101237363FB6B002B35
S214400820E3DB05254FF08048C146C7F83090C82026
S214400830A047C7F83480C820A047013DF5D1D1E78E
S2144008400525DFF834804FF00409CB46C8F830B0B1
S214400850C820A047C8F83490C820A047013DF5D12D
S2144008600422054B5A63C4E7F1064000000E0E40D2
S21440087000120E40CD06400000100E4000140E4000
S21440088070B50F4E0F4D761BB61018BF002405D01E
S214400890013455F8043B9847A642F9D10A4E0B4D11
S2144008A0761B00F0A7F8B61018BF002406D0013417
S2144008B055F8043B9847A642F9D170BD70BD00BFBD
S2144008C0000A4000000A4000080A4000000A4000B3
S2144008D0024B13B1024800F005B870470000000014
S2144008E0F1084000002301461A46184600F01EB89C
S2144008F038B50A4C0A4D641BA4100AD004F1804354
S214400900013B05EB8305013C55F804399847002C1C
S214400910F9D1BDE8384000F077B800BF180A40006B
S214400920140A4000704700BF704700BF2DE9F843E7
S2144009302C4D0646286898460F469146FFF7F2FF2C
S214400940294B1C68D4F84831002B3ED05A681F2AE1
S2144009501CDC02F1010E76B103EB82010124C1F8E2
S2144009608890D3F8880194402043022EC3F888012B
S214400970C1F8088123D00232C3F804E0286843F85F
S2144009802270FFF7D1FF0020BDE8F883174B0BB36A
S2144009904FF4C870AFF300800346D8B1D4F848216E
S2144009A00260002141600A46C4F848014FF0010E3B
S2144009B0C0F88811C0F88C11002EDCD0CCE7D3F8F4
S2144009C08C110C43C3F88C41D5E704F5A673C4F8E4
S2144009D04831BBE72868FFF7A7FF4FF0FF30BDE878
S2144009E0F88300BF30044020F009400000000000BB
S2144009F008004020F8B500BFF8BC08BC9E467047CB
S214400A00D108400065014000F8B500BFF8BC08BCFE
S20C400A109E467047410140007C
S214400A180100000000093D0000000000F4024020EC
S214400A285C034020C4034020000000000000000093
S214400A380000000000000000000000000000000069
S214400A480000000000000000000000000000000059
S214400A580000000000000000000000000000000049
S214400A680000000000000000000000000000000039
S214400A780000000000000000000000000000000029
S214400A880000000000000000000000000000000019
S214400A980000000000000000000000000000000009
S214400AA800000000000000000000000000000000F9
S214400AB800000000000000000000000000000000E9
S214400AC801000000000000000E33CDAB34126DE686
S214400AD8ECDE05000B0000000000000000000000EF
S214400AE800000000000000000000000000000000B9
S214400AF800000000000000000000000000000000A9
S214400B080000000000000000000000000000000098
S214400B180000000000000000000000000000000088
S208400E48C00440203D
S80440045562
